{
  "_format": "hh-sol-artifact-1",
  "contractName": "RevenueSplitter",
  "sourceName": "contracts/REMXNFT.sol",
  "abi": [
    {
      "anonymous": false,
      "inputs": [
        {
          "indexed": true,
          "internalType": "address",
          "name": "collection",
          "type": "address"
        },
        {
          "indexed": true,
          "internalType": "address",
          "name": "account",
          "type": "address"
        },
        {
          "indexed": false,
          "internalType": "uint256",
          "name": "shares",
          "type": "uint256"
        }
      ],
      "name": "AddPayeeEvent",
      "type": "event"
    },
    {
      "anonymous": false,
      "inputs": [
        {
          "indexed": true,
          "internalType": "address",
          "name": "collection",
          "type": "address"
        },
        {
          "indexed": false,
          "internalType": "uint256",
          "name": "tokenId",
          "type": "uint256"
        },
        {
          "indexed": false,
          "internalType": "uint256",
          "name": "amount",
          "type": "uint256"
        }
      ],
      "name": "BuyEvent",
      "type": "event"
    },
    {
      "anonymous": false,
      "inputs": [
        {
          "indexed": true,
          "internalType": "address",
          "name": "collection",
          "type": "address"
        }
      ],
      "name": "CreateCollectionEvent",
      "type": "event"
    },
    {
      "anonymous": false,
      "inputs": [
        {
          "indexed": true,
          "internalType": "address",
          "name": "collection",
          "type": "address"
        },
        {
          "indexed": true,
          "internalType": "address",
          "name": "payee",
          "type": "address"
        },
        {
          "indexed": false,
          "internalType": "uint256",
          "name": "amount",
          "type": "uint256"
        }
      ],
      "name": "DepositEvent",
      "type": "event"
    },
    {
      "anonymous": false,
      "inputs": [
        {
          "indexed": true,
          "internalType": "address",
          "name": "previousOwner",
          "type": "address"
        },
        {
          "indexed": true,
          "internalType": "address",
          "name": "newOwner",
          "type": "address"
        }
      ],
      "name": "OwnershipTransferred",
      "type": "event"
    },
    {
      "anonymous": false,
      "inputs": [
        {
          "indexed": true,
          "internalType": "address",
          "name": "payee",
          "type": "address"
        },
        {
          "indexed": false,
          "internalType": "uint256",
          "name": "amount",
          "type": "uint256"
        }
      ],
      "name": "PayoutEvent",
      "type": "event"
    },
    {
      "anonymous": false,
      "inputs": [
        {
          "indexed": true,
          "internalType": "address",
          "name": "collection",
          "type": "address"
        },
        {
          "indexed": true,
          "internalType": "address",
          "name": "account",
          "type": "address"
        }
      ],
      "name": "RemovePayeeEvent",
      "type": "event"
    },
    {
      "anonymous": false,
      "inputs": [
        {
          "indexed": true,
          "internalType": "bytes32",
          "name": "role",
          "type": "bytes32"
        },
        {
          "indexed": true,
          "internalType": "bytes32",
          "name": "previousAdminRole",
          "type": "bytes32"
        },
        {
          "indexed": true,
          "internalType": "bytes32",
          "name": "newAdminRole",
          "type": "bytes32"
        }
      ],
      "name": "RoleAdminChanged",
      "type": "event"
    },
    {
      "anonymous": false,
      "inputs": [
        {
          "indexed": true,
          "internalType": "bytes32",
          "name": "role",
          "type": "bytes32"
        },
        {
          "indexed": true,
          "internalType": "address",
          "name": "account",
          "type": "address"
        },
        {
          "indexed": true,
          "internalType": "address",
          "name": "sender",
          "type": "address"
        }
      ],
      "name": "RoleGranted",
      "type": "event"
    },
    {
      "anonymous": false,
      "inputs": [
        {
          "indexed": true,
          "internalType": "bytes32",
          "name": "role",
          "type": "bytes32"
        },
        {
          "indexed": true,
          "internalType": "address",
          "name": "account",
          "type": "address"
        },
        {
          "indexed": true,
          "internalType": "address",
          "name": "sender",
          "type": "address"
        }
      ],
      "name": "RoleRevoked",
      "type": "event"
    },
    {
      "anonymous": false,
      "inputs": [
        {
          "indexed": true,
          "internalType": "address",
          "name": "collection",
          "type": "address"
        },
        {
          "indexed": false,
          "internalType": "uint256",
          "name": "amount",
          "type": "uint256"
        }
      ],
      "name": "RoyaltyEvent",
      "type": "event"
    },
    {
      "anonymous": false,
      "inputs": [
        {
          "indexed": true,
          "internalType": "address",
          "name": "payee",
          "type": "address"
        },
        {
          "indexed": true,
          "internalType": "address",
          "name": "recipient",
          "type": "address"
        },
        {
          "indexed": false,
          "internalType": "uint256",
          "name": "amount",
          "type": "uint256"
        }
      ],
      "name": "SweepEvent",
      "type": "event"
    },
    {
      "anonymous": false,
      "inputs": [
        {
          "indexed": true,
          "internalType": "address",
          "name": "payee",
          "type": "address"
        },
        {
          "indexed": false,
          "internalType": "uint256",
          "name": "amount",
          "type": "uint256"
        }
      ],
      "name": "WithdrawEvent",
      "type": "event"
    },
    {
      "inputs": [],
      "name": "DEFAULT_ADMIN_ROLE",
      "outputs": [
        {
          "internalType": "bytes32",
          "name": "",
          "type": "bytes32"
        }
      ],
      "stateMutability": "view",
      "type": "function"
    },
    {
      "inputs": [],
      "name": "PAYOUT_ROLE",
      "outputs": [
        {
          "internalType": "bytes32",
          "name": "",
          "type": "bytes32"
        }
      ],
      "stateMutability": "view",
      "type": "function"
    },
    {
      "inputs": [
        {
          "internalType": "address",
          "name": "_collection",
          "type": "address"
        },
        {
          "internalType": "address",
          "name": "_payee",
          "type": "address"
        },
        {
          "internalType": "uint256",
          "name": "shares",
          "type": "uint256"
        }
      ],
      "name": "addCollectionPayee",
      "outputs": [],
      "stateMutability": "nonpayable",
      "type": "function"
    },
    {
      "inputs": [
        {
          "internalType": "address",
          "name": "account",
          "type": "address"
        }
      ],
      "name": "balanceOf",
      "outputs": [
        {
          "internalType": "uint256",
          "name": "",
          "type": "uint256"
        }
      ],
      "stateMutability": "view",
      "type": "function"
    },
    {
      "inputs": [
        {
          "internalType": "address payable",
          "name": "_collection",
          "type": "address"
        },
        {
          "internalType": "uint256",
          "name": "tokenId",
          "type": "uint256"
        },
        {
          "internalType": "bytes",
          "name": "signature",
          "type": "bytes"
        }
      ],
      "name": "buyNFT",
      "outputs": [],
      "stateMutability": "payable",
      "type": "function"
    },
    {
      "inputs": [
        {
          "internalType": "string",
          "name": "name",
          "type": "string"
        },
        {
          "internalType": "string",
          "name": "symbol",
          "type": "string"
        },
        {
          "internalType": "uint256",
          "name": "royaltyAmount",
          "type": "uint256"
        }
      ],
      "name": "createCollection",
      "outputs": [
        {
          "internalType": "address",
          "name": "",
          "type": "address"
        }
      ],
      "stateMutability": "nonpayable",
      "type": "function"
    },
    {
      "inputs": [
        {
          "internalType": "address",
          "name": "_collection",
          "type": "address"
        }
      ],
      "name": "depositRoyalty",
      "outputs": [],
      "stateMutability": "payable",
      "type": "function"
    },
    {
      "inputs": [
        {
          "internalType": "bytes32",
          "name": "role",
          "type": "bytes32"
        }
      ],
      "name": "getRoleAdmin",
      "outputs": [
        {
          "internalType": "bytes32",
          "name": "",
          "type": "bytes32"
        }
      ],
      "stateMutability": "view",
      "type": "function"
    },
    {
      "inputs": [
        {
          "internalType": "bytes32",
          "name": "role",
          "type": "bytes32"
        },
        {
          "internalType": "address",
          "name": "account",
          "type": "address"
        }
      ],
      "name": "grantRole",
      "outputs": [],
      "stateMutability": "nonpayable",
      "type": "function"
    },
    {
      "inputs": [
        {
          "internalType": "bytes32",
          "name": "role",
          "type": "bytes32"
        },
        {
          "internalType": "address",
          "name": "account",
          "type": "address"
        }
      ],
      "name": "hasRole",
      "outputs": [
        {
          "internalType": "bool",
          "name": "",
          "type": "bool"
        }
      ],
      "stateMutability": "view",
      "type": "function"
    },
    {
      "inputs": [],
      "name": "initialize",
      "outputs": [],
      "stateMutability": "nonpayable",
      "type": "function"
    },
    {
      "inputs": [
        {
          "internalType": "address",
          "name": "_collection",
          "type": "address"
        }
      ],
      "name": "isRegistered",
      "outputs": [
        {
          "internalType": "bool",
          "name": "",
          "type": "bool"
        }
      ],
      "stateMutability": "view",
      "type": "function"
    },
    {
      "inputs": [],
      "name": "owner",
      "outputs": [
        {
          "internalType": "address",
          "name": "",
          "type": "address"
        }
      ],
      "stateMutability": "view",
      "type": "function"
    },
    {
      "inputs": [
        {
          "internalType": "address payable",
          "name": "_payee",
          "type": "address"
        }
      ],
      "name": "payout",
      "outputs": [],
      "stateMutability": "nonpayable",
      "type": "function"
    },
    {
      "inputs": [
        {
          "internalType": "address",
          "name": "_collection",
          "type": "address"
        },
        {
          "internalType": "address",
          "name": "_payee",
          "type": "address"
        }
      ],
      "name": "removeCollectionPayee",
      "outputs": [],
      "stateMutability": "nonpayable",
      "type": "function"
    },
    {
      "inputs": [],
      "name": "renounceOwnership",
      "outputs": [],
      "stateMutability": "nonpayable",
      "type": "function"
    },
    {
      "inputs": [
        {
          "internalType": "bytes32",
          "name": "role",
          "type": "bytes32"
        },
        {
          "internalType": "address",
          "name": "account",
          "type": "address"
        }
      ],
      "name": "renounceRole",
      "outputs": [],
      "stateMutability": "nonpayable",
      "type": "function"
    },
    {
      "inputs": [
        {
          "internalType": "bytes32",
          "name": "role",
          "type": "bytes32"
        },
        {
          "internalType": "address",
          "name": "account",
          "type": "address"
        }
      ],
      "name": "revokeRole",
      "outputs": [],
      "stateMutability": "nonpayable",
      "type": "function"
    },
    {
      "inputs": [
        {
          "internalType": "bytes4",
          "name": "interfaceId",
          "type": "bytes4"
        }
      ],
      "name": "supportsInterface",
      "outputs": [
        {
          "internalType": "bool",
          "name": "",
          "type": "bool"
        }
      ],
      "stateMutability": "view",
      "type": "function"
    },
    {
      "inputs": [
        {
          "internalType": "address",
          "name": "_payee",
          "type": "address"
        },
        {
          "internalType": "address payable",
          "name": "_recipient",
          "type": "address"
        }
      ],
      "name": "sweep",
      "outputs": [],
      "stateMutability": "nonpayable",
      "type": "function"
    },
    {
      "inputs": [
        {
          "internalType": "address",
          "name": "newOwner",
          "type": "address"
        }
      ],
      "name": "transferOwnership",
      "outputs": [],
      "stateMutability": "nonpayable",
      "type": "function"
    },
    {
      "inputs": [],
      "name": "withdraw",
      "outputs": [],
      "stateMutability": "nonpayable",
      "type": "function"
    }
  ],
  "bytecode": "0x608060405234801561001057600080fd5b50615627806100206000396000f3fe6080604052600436106200014f5760003560e01c8063715018a611620000b9578063a217fddf1162000078578063a217fddf14620003d0578063b8dc491b14620003e7578063c3c5a547146200040c578063d547741f1462000449578063eb953d39146200046e578063f2fde38b146200049357600080fd5b8063715018a614620003445780638129fc1c146200035c5780638da5cb5b146200037457806391d148541462000394578063a0be67d614620003b957600080fd5b806336568abe116200011257806336568abe14620002345780633ccfd60b14620002595780634179a8f614620002715780634197ed7414620002a75780635fab93ae14620002e557806370a08231146200030a57600080fd5b806301ffc9a714620001545780630b7e9c44146200018e5780631f376f1414620001b5578063248a9ca314620001cc5780632f2ff15d146200020f575b600080fd5b3480156200016157600080fd5b50620001796200017336600462001eda565b620004b8565b60405190151581526020015b60405180910390f35b3480156200019b57600080fd5b50620001b3620001ad36600462001d55565b620004e6565b005b620001b3620001c636600462001d55565b620005c3565b348015620001d957600080fd5b5062000200620001eb36600462001e81565b60009081526097602052604090206001015490565b60405190815260200162000185565b3480156200021c57600080fd5b50620001b36200022e36600462001eb3565b62000651565b3480156200024157600080fd5b50620001b36200025336600462001eb3565b62000680565b3480156200026657600080fd5b50620001b362000702565b3480156200027e57600080fd5b50620002007f5612063648f807201ec1c6d4f999a34ed02c6a8b521b7b99e155a6823c56873681565b348015620002b457600080fd5b50620002cc620002c636600462001f04565b62000781565b6040516001600160a01b03909116815260200162000185565b348015620002f257600080fd5b50620001b36200030436600462001e3c565b62000b16565b3480156200031757600080fd5b50620002006200032936600462001d55565b6001600160a01b0316600090815260c9602052604090205490565b3480156200035157600080fd5b50620001b362000ddb565b3480156200036957600080fd5b50620001b362000e16565b3480156200038157600080fd5b506033546001600160a01b0316620002cc565b348015620003a157600080fd5b5062000179620003b336600462001eb3565b62000eec565b620001b3620003ca36600462001d74565b62000f17565b348015620003dd57600080fd5b5062000200600081565b348015620003f457600080fd5b50620001b36200040636600462001dff565b62001065565b3480156200041957600080fd5b50620001796200042b36600462001d55565b6001600160a01b0316600090815260cb602052604090205460ff1690565b3480156200045657600080fd5b50620001b36200046836600462001eb3565b62001144565b3480156200047b57600080fd5b50620001b36200048d36600462001dff565b6200116e565b348015620004a057600080fd5b50620001b3620004b236600462001d55565b620014e5565b60006001600160e01b0319821663c54d487560e01b1480620004e05750620004e08262001584565b92915050565b7f5612063648f807201ec1c6d4f999a34ed02c6a8b521b7b99e155a6823c568736620005138133620015bb565b6001600160a01b038216600090815260c9602052604090205480620005555760405162461bcd60e51b81526004016200054c9062002135565b60405180910390fd5b6001600160a01b038316600090815260c960205260408120556200057a83826200162a565b826001600160a01b03167f80e009436f30a4f32133e25b51b5349f2842ea9e93ea4fb6cdaaa4b4e518c68782604051620005b691815260200190565b60405180910390a2505050565b6001600160a01b038116600090815260cb602052604090205460ff16620005fe5760405162461bcd60e51b81526004016200054c90620020c9565b6200060a813462001749565b806001600160a01b03167f61bbd690186cb1063ba2631cb23de3a44843d555f1b0a3cb1a8868a1367e8c64346040516200064691815260200190565b60405180910390a250565b6000828152609760205260409020600101546200066f8133620015bb565b6200067b8383620018f1565b505050565b6001600160a01b0381163314620006f25760405162461bcd60e51b815260206004820152602f60248201527f416363657373436f6e74726f6c3a2063616e206f6e6c792072656e6f756e636560448201526e103937b632b9903337b91039b2b63360891b60648201526084016200054c565b620006fe82826200197b565b5050565b33600090815260c9602052604090205480620007325760405162461bcd60e51b81526004016200054c9062002135565b33600081815260c960205260408120556200074e90826200162a565b60405181815233907f5dba113b49cfa7c90315e8e604e6b506f7abcb909b01dcb19ec39005086e68fc9060200162000646565b6033546000906001600160a01b03163314620007b15760405162461bcd60e51b81526004016200054c9062002100565b6005845111620007fa5760405162461bcd60e51b81526020600482015260136024820152721493560e8813985b59481d1bdbc81cda1bdc9d606a1b60448201526064016200054c565b600383511015620008465760405162461bcd60e51b81526020600482015260156024820152741493560e8814de5b589bdb081d1bdbc81cda1bdc9d605a1b60448201526064016200054c565b6064821115620008995760405162461bcd60e51b815260206004820152601b60248201527f524d583a20496e76616c696420726f79616c747920616d6f756e74000000000060448201526064016200054c565b600030858585604051620008ad9062001cb8565b620008bc94939291906200201c565b604051809103906000f080158015620008d9573d6000803e3d6000fd5b509050806001600160a01b0316632f2ff15d826001600160a01b031663a217fddf6040518163ffffffff1660e01b815260040160206040518083038186803b1580156200092557600080fd5b505afa1580156200093a573d6000803e3d6000fd5b505050506040513d601f19601f8201168201806040525081019062000960919062001e9a565b6033546001600160a01b03166040516001600160e01b031960e085901b16815260048101929092526001600160a01b03166024820152604401600060405180830381600087803b158015620009b457600080fd5b505af1158015620009c9573d6000803e3d6000fd5b50505050806001600160a01b0316632f2ff15d826001600160a01b031663e63ab1e96040518163ffffffff1660e01b815260040160206040518083038186803b15801562000a1657600080fd5b505afa15801562000a2b573d6000803e3d6000fd5b505050506040513d601f19601f8201168201806040525081019062000a51919062001e9a565b6033546001600160a01b03166040516001600160e01b031960e085901b16815260048101929092526001600160a01b03166024820152604401600060405180830381600087803b15801562000aa557600080fd5b505af115801562000aba573d6000803e3d6000fd5b5050506001600160a01b038216600081815260cb6020526040808220805460ff19166001908117825501829055519192507f0d2cef1c634fa3276158c45f67fb4e707809a53f7a2b2a683d562ee009726da991a2949350505050565b6033546001600160a01b0316331462000b435760405162461bcd60e51b81526004016200054c9062002100565b6001600160a01b03821662000b9b5760405162461bcd60e51b815260206004820152601a60248201527f524d583a207061796565206973207a65726f206164647265737300000000000060448201526064016200054c565b6001600160a01b038316600090815260cb602052604090205460ff1662000bd65760405162461bcd60e51b81526004016200054c90620020c9565b6000811162000c1c5760405162461bcd60e51b81526020600482015260116024820152700524d583a2073686172657320617265203607c1b60448201526064016200054c565b60005b6001600160a01b038416600090815260cb602052604090206002015481101562000d03576001600160a01b03848116600090815260cb602052604090206002018054918516918390811062000c8457634e487b7160e01b600052603260045260246000fd5b60009182526020909120600290910201546001600160a01b0316141562000cee5760405162461bcd60e51b815260206004820152601d60248201527f524d583a20506179656520616c7265616479207265676973746572656400000060448201526064016200054c565b8062000cfa8162002231565b91505062000c1f565b506001600160a01b03838116600081815260cb602081815260408084208151808301909252888716825281830188815260028083018054600180820183559189528689209551920290940180546001600160a01b031916919099161788555196820196909655938352529101805483929062000d819084906200216c565b92505081905550816001600160a01b0316836001600160a01b03167f7e4a1d75a22ce499c26ab4a27950f7bd712e7c428978afecf7e75aed1c541bf28360405162000dce91815260200190565b60405180910390a3505050565b6033546001600160a01b0316331462000e085760405162461bcd60e51b81526004016200054c9062002100565b62000e146000620019e5565b565b600054610100900460ff1662000e335760005460ff161562000e37565b303b155b62000e9c5760405162461bcd60e51b815260206004820152602e60248201527f496e697469616c697a61626c653a20636f6e747261637420697320616c72656160448201526d191e481a5b9a5d1a585b1a5e995960921b60648201526084016200054c565b600054610100900460ff1615801562000ebf576000805461ffff19166101011790555b62000ec962001a37565b62000ed660003362001aaf565b801562000ee9576000805461ff00191690555b50565b60009182526097602090815260408084206001600160a01b0393909316845291905290205460ff1690565b6001600160a01b038416600090815260cb602052604090205460ff1662000f525760405162461bcd60e51b81526004016200054c90620020c9565b66b1a2bc2ec5000034101562000fa35760405162461bcd60e51b81526020600482015260156024820152741493560e88185b5bdd5b9d081d1bdbc81cdb585b1b605a1b60448201526064016200054c565b604051630f3cf99960e21b815284906001600160a01b03821690633cf3e6649062000fdb903390889034908990899060040162002068565b600060405180830381600087803b15801562000ff657600080fd5b505af11580156200100b573d6000803e3d6000fd5b505050506200101b853462001749565b604080518581523460208201526001600160a01b038716917f02eaa22fbb9062b92c96f349b0e3103065eb20fcdd0de3ea47072c85492cdab0910160405180910390a25050505050565b7f5612063648f807201ec1c6d4f999a34ed02c6a8b521b7b99e155a6823c568736620010928133620015bb565b6001600160a01b038316600090815260c9602052604090205480620010cb5760405162461bcd60e51b81526004016200054c9062002135565b6001600160a01b038416600090815260c96020526040812055620010f083826200162a565b826001600160a01b0316846001600160a01b03167fc23709862a4c577a0eb417be82feb9f2563057b7362ab578babf5c138b470056836040516200113691815260200190565b60405180910390a350505050565b600082815260976020526040902060010154620011628133620015bb565b6200067b83836200197b565b6033546001600160a01b031633146200119b5760405162461bcd60e51b81526004016200054c9062002100565b6001600160a01b038116620011f35760405162461bcd60e51b815260206004820152601a60248201527f524d583a207061796565206973207a65726f206164647265737300000000000060448201526064016200054c565b6001600160a01b038216600090815260cb602052604090205460ff166200122e5760405162461bcd60e51b81526004016200054c90620020c9565b6000805b6001600160a01b038416600090815260cb602052604090206002015481101562001450576001600160a01b03848116600090815260cb60205260409020600201805491851691839081106200129757634e487b7160e01b600052603260045260246000fd5b60009182526020909120600290910201546001600160a01b031614156200143b576001600160a01b038416600090815260cb60205260409020600201805482908110620012f457634e487b7160e01b600052603260045260246000fd5b60009182526020808320600292830201546001600160a01b03888116855260cb909252604090932090910180549190921693506200133590600190620021ca565b815481106200135457634e487b7160e01b600052603260045260246000fd5b906000526020600020906002020160cb6000866001600160a01b03166001600160a01b031681526020019081526020016000206002018281548110620013aa57634e487b7160e01b600052603260045260246000fd5b600091825260208083208454600293840290910180546001600160a01b0319166001600160a01b03928316178155600195860154950194909455928716825260cb90925260409020018054806200141157634e487b7160e01b600052603160045260246000fd5b60008281526020812060026000199093019283020180546001600160a01b03191681556001015590555b80620014478162002231565b91505062001232565b506001600160a01b038116620014a05760405162461bcd60e51b81526020600482015260146024820152731493560e881c185e5959481b9bdd08199bdd5b9960621b60448201526064016200054c565b816001600160a01b0316836001600160a01b03167f64fd21a7e658d1bb0c35d0005345c260a2c8e0db3271e4d18817ad7930f3526960405160405180910390a3505050565b6033546001600160a01b03163314620015125760405162461bcd60e51b81526004016200054c9062002100565b6001600160a01b038116620015795760405162461bcd60e51b815260206004820152602660248201527f4f776e61626c653a206e6577206f776e657220697320746865207a65726f206160448201526564647265737360d01b60648201526084016200054c565b62000ee981620019e5565b60006001600160e01b03198216637965db0b60e01b1480620004e057506301ffc9a760e01b6001600160e01b0319831614620004e0565b620015c7828262000eec565b620006fe57620015e2816001600160a01b0316601462001abb565b620015ef83602062001abb565b6040516020016200160292919062001fa3565b60408051601f198184030181529082905262461bcd60e51b82526200054c91600401620020b4565b804710156200167c5760405162461bcd60e51b815260206004820152601d60248201527f416464726573733a20696e73756666696369656e742062616c616e636500000060448201526064016200054c565b6000826001600160a01b03168260405160006040518083038185875af1925050503d8060008114620016cb576040519150601f19603f3d011682016040523d82523d6000602084013e620016d0565b606091505b50509050806200067b5760405162461bcd60e51b815260206004820152603a60248201527f416464726573733a20756e61626c6520746f2073656e642076616c75652c207260448201527f6563697069656e74206d6179206861766520726576657274656400000000000060648201526084016200054c565b60005b6001600160a01b038316600090815260cb60205260409020600201548110156200067b576001600160a01b038316600090815260cb60205260408120600201805483908110620017ac57634e487b7160e01b600052603260045260246000fd5b60009182526020808320604080518082018252600290940290910180546001600160a01b039081168552600191820154858501908152908a16865260cb9093529084200154905191935090620018039086620021a8565b6200180f919062002187565b90506200181d8185620021ca565b6001600160a01b038616600090815260cb60205260409020600201549094506200184a90600190620021ca565b83141562001865576200185e84826200216c565b9050600093505b81516001600160a01b0316600090815260c9602052604081208054839290620018909084906200216c565b909155505081516040518281526001600160a01b03918216918716907f01bee1bfa4116bd0440a1108ef6cb6a2f6eb9b611d8f53260aec20d39e84ee889060200160405180910390a350508080620018e89062002231565b9150506200174c565b620018fd828262000eec565b620006fe5760008281526097602090815260408083206001600160a01b03851684529091529020805460ff19166001179055620019373390565b6001600160a01b0316816001600160a01b0316837f2f8788117e7eff1d82e926ec794901d17c78024a50270940304540a733656f0d60405160405180910390a45050565b62001987828262000eec565b15620006fe5760008281526097602090815260408083206001600160a01b0385168085529252808320805460ff1916905551339285917ff6391f5c32d9c69d2a47ea670b442974b53935d1edc7fd64eb21e047a839171b9190a45050565b603380546001600160a01b038381166001600160a01b0319831681179093556040519116919082907f8be0079c531659141344cd1fd0a4f28419497f9722a3daafe3b4186f6b6457e090600090a35050565b600054610100900460ff1662001aa45760405162461bcd60e51b815260206004820152602b60248201527f496e697469616c697a61626c653a20636f6e7472616374206973206e6f74206960448201526a6e697469616c697a696e6760a81b60648201526084016200054c565b62000e1433620019e5565b620006fe8282620018f1565b6060600062001acc836002620021a8565b62001ad99060026200216c565b67ffffffffffffffff81111562001b0057634e487b7160e01b600052604160045260246000fd5b6040519080825280601f01601f19166020018201604052801562001b2b576020820181803683370190505b509050600360fc1b8160008151811062001b5557634e487b7160e01b600052603260045260246000fd5b60200101906001600160f81b031916908160001a905350600f60fb1b8160018151811062001b9357634e487b7160e01b600052603260045260246000fd5b60200101906001600160f81b031916908160001a905350600062001bb9846002620021a8565b62001bc69060016200216c565b90505b600181111562001c60576f181899199a1a9b1b9c1cb0b131b232b360811b85600f166010811062001c0a57634e487b7160e01b600052603260045260246000fd5b1a60f81b82828151811062001c2f57634e487b7160e01b600052603260045260246000fd5b60200101906001600160f81b031916908160001a90535060049490941c9362001c588162002217565b905062001bc9565b50831562001cb15760405162461bcd60e51b815260206004820181905260248201527f537472696e67733a20686578206c656e67746820696e73756666696369656e7460448201526064016200054c565b9392505050565b613360806200229283390190565b600082601f83011262001cd7578081fd5b813567ffffffffffffffff8082111562001cf55762001cf562002265565b604051601f8301601f19908116603f0116810190828211818310171562001d205762001d2062002265565b8160405283815286602085880101111562001d39578485fd5b8360208701602083013792830160200193909352509392505050565b60006020828403121562001d67578081fd5b813562001cb1816200227b565b6000806000806060858703121562001d8a578283fd5b843562001d97816200227b565b935060208501359250604085013567ffffffffffffffff8082111562001dbb578384fd5b818701915087601f83011262001dcf578384fd5b81358181111562001dde578485fd5b88602082850101111562001df0578485fd5b95989497505060200194505050565b6000806040838503121562001e12578182fd5b823562001e1f816200227b565b9150602083013562001e31816200227b565b809150509250929050565b60008060006060848603121562001e51578283fd5b833562001e5e816200227b565b9250602084013562001e70816200227b565b929592945050506040919091013590565b60006020828403121562001e93578081fd5b5035919050565b60006020828403121562001eac578081fd5b5051919050565b6000806040838503121562001ec6578182fd5b82359150602083013562001e31816200227b565b60006020828403121562001eec578081fd5b81356001600160e01b03198116811462001cb1578182fd5b60008060006060848603121562001f19578283fd5b833567ffffffffffffffff8082111562001f31578485fd5b62001f3f8783880162001cc6565b9450602086013591508082111562001f55578384fd5b5062001f648682870162001cc6565b925050604084013590509250925092565b6000815180845262001f8f816020860160208601620021e4565b601f01601f19169290920160200192915050565b7f416363657373436f6e74726f6c3a206163636f756e742000000000000000000081526000835162001fdd816017850160208801620021e4565b7001034b99036b4b9b9b4b733903937b6329607d1b601791840191820152835162002010816028840160208801620021e4565b01602801949350505050565b6001600160a01b0385168152608060208201819052600090620020429083018662001f75565b828103604084015262002056818662001f75565b91505082606083015295945050505050565b60018060a01b038616815284602082015283604082015260806060820152816080820152818360a0830137600081830160a090810191909152601f909201601f19160101949350505050565b60208152600062001cb1602083018462001f75565b60208082526017908201527f524d583a20556e6b6e6f776e20636f6c6c656374696f6e000000000000000000604082015260600190565b6020808252818101527f4f776e61626c653a2063616c6c6572206973206e6f7420746865206f776e6572604082015260600190565b60208082526019908201527f524d583a20496e73756666696369656e742062616c616e636500000000000000604082015260600190565b600082198211156200218257620021826200224f565b500190565b600082620021a357634e487b7160e01b81526012600452602481fd5b500490565b6000816000190483118215151615620021c557620021c56200224f565b500290565b600082821015620021df57620021df6200224f565b500390565b60005b8381101562002201578181015183820152602001620021e7565b8381111562002211576000848401525b50505050565b6000816200222957620022296200224f565b506000190190565b60006000198214156200224857620022486200224f565b5060010190565b634e487b7160e01b600052601160045260246000fd5b634e487b7160e01b600052604160045260246000fd5b6001600160a01b038116811462000ee957600080fdfe6101406040523480156200001257600080fd5b506040516200336038038062003360833981016040819052620000359162000854565b82604051806040016040528060058152602001640312e302e360dc1b815250848481600090805190602001906200006e92919062000729565b5080516200008490600190602084019062000729565b50506006805460ff1916905550815160208084019190912082518383012060e08290526101008190524660a0818152604080517f8b73c3c69bb8fe3d512ecc4cf759cc79239f7b179b0ffacaa9a75d522b39400f81880181905281830187905260608201869052608082019490945230818401528151808203909301835260c00190528051940193909320919290916080523060601b60c05261012052505050506001600160a01b0384163314620001835760405162461bcd60e51b815260206004820152601360248201527f524d583a20496e76616c69642073656e6465720000000000000000000000000060448201526064015b60405180910390fd5b620001ad63c54d487560e01b856001600160a01b03166200026060201b62000dc61790919060201c565b620001fb5760405162461bcd60e51b815260206004820152601560248201527f524d583a20496e76616c6964206465706c6f796572000000000000000000000060448201526064016200017a565b620002086000336200028a565b620002347f65d7a28e3265b37a6474929f336521b332c1681b933f6cb9f3376673440d862a336200029a565b600880546001600160a01b0319166001600160a01b039590951694909417909355505060095562000ac3565b60006200026d83620002c9565b801562000281575062000281838362000301565b90505b92915050565b620002968282620003f3565b5050565b600082815260076020526040902060010154620002b8813362000497565b620002c48383620003f3565b505050565b6000620002de826301ffc9a760e01b62000301565b8015620002845750620002fa826001600160e01b031962000301565b1592915050565b604080516001600160e01b0319831660248083019190915282518083039091018152604490910182526020810180516001600160e01b03166301ffc9a760e01b179052905160009190829081906001600160a01b03871690617530906200036a90869062000904565b6000604051808303818686fa925050503d8060008114620003a8576040519150601f19603f3d011682016040523d82523d6000602084013e620003ad565b606091505b5091509150602081511015620003ca576000935050505062000284565b818015620003e9575080806020019051810190620003e99190620008e2565b9695505050505050565b60008281526007602090815260408083206001600160a01b038516845290915290205460ff16620002965760008281526007602090815260408083206001600160a01b03851684529091529020805460ff19166001179055620004533390565b6001600160a01b0316816001600160a01b0316837f2f8788117e7eff1d82e926ec794901d17c78024a50270940304540a733656f0d60405160405180910390a45050565b60008281526007602090815260408083206001600160a01b038516845290915290205460ff166200029657620004e3816001600160a01b031660146200053460201b62000de21760201c565b620004f983602062000de262000534821b17811c565b6040516020016200050c92919062000922565b60408051601f198184030181529082905262461bcd60e51b82526200017a916004016200099b565b6060600062000545836002620009eb565b62000552906002620009d0565b6001600160401b038111156200057857634e487b7160e01b600052604160045260246000fd5b6040519080825280601f01601f191660200182016040528015620005a3576020820181803683370190505b509050600360fc1b81600081518110620005cd57634e487b7160e01b600052603260045260246000fd5b60200101906001600160f81b031916908160001a905350600f60fb1b816001815181106200060b57634e487b7160e01b600052603260045260246000fd5b60200101906001600160f81b031916908160001a905350600062000631846002620009eb565b6200063e906001620009d0565b90505b6001811115620006d8576f181899199a1a9b1b9c1cb0b131b232b360811b85600f16601081106200068257634e487b7160e01b600052603260045260246000fd5b1a60f81b828281518110620006a757634e487b7160e01b600052603260045260246000fd5b60200101906001600160f81b031916908160001a90535060049490941c93620006d08162000a40565b905062000641565b508315620002815760405162461bcd60e51b815260206004820181905260248201527f537472696e67733a20686578206c656e67746820696e73756666696369656e7460448201526064016200017a565b828054620007379062000a5a565b90600052602060002090601f0160209004810192826200075b5760008555620007a6565b82601f106200077657805160ff1916838001178555620007a6565b82800160010185558215620007a6579182015b82811115620007a657825182559160200191906001019062000789565b50620007b4929150620007b8565b5090565b5b80821115620007b45760008155600101620007b9565b600082601f830112620007e0578081fd5b81516001600160401b0380821115620007fd57620007fd62000aad565b604051601f8301601f19908116603f0116810190828211818310171562000828576200082862000aad565b8160405283815286602085880101111562000841578485fd5b620003e984602083016020890162000a0d565b600080600080608085870312156200086a578384fd5b84516001600160a01b038116811462000881578485fd5b60208601519094506001600160401b03808211156200089e578485fd5b620008ac88838901620007cf565b94506040870151915080821115620008c2578384fd5b50620008d187828801620007cf565b606096909601519497939650505050565b600060208284031215620008f4578081fd5b8151801515811462000281578182fd5b600082516200091881846020870162000a0d565b9190910192915050565b7f416363657373436f6e74726f6c3a206163636f756e74200000000000000000008152600083516200095c81601785016020880162000a0d565b7001034b99036b4b9b9b4b733903937b6329607d1b60179184019182015283516200098f81602884016020880162000a0d565b01602801949350505050565b6020815260008251806020840152620009bc81604085016020870162000a0d565b601f01601f19169190910160400192915050565b60008219821115620009e657620009e662000a97565b500190565b600081600019048311821515161562000a085762000a0862000a97565b500290565b60005b8381101562000a2a57818101518382015260200162000a10565b8381111562000a3a576000848401525b50505050565b60008162000a525762000a5262000a97565b506000190190565b600181811c9082168062000a6f57607f821691505b6020821081141562000a9157634e487b7160e01b600052602260045260246000fd5b50919050565b634e487b7160e01b600052601160045260246000fd5b634e487b7160e01b600052604160045260246000fd5b60805160a05160c05160601c60e051610100516101205161284a62000b166000396000611c4301526000611c9201526000611c6d01526000611bc601526000611bf001526000611c1a015261284a6000f3fe6080604052600436106101855760003560e01c80636352211e116100d1578063a22cb4651161008a578063d539139311610064578063d5391393146104dd578063d547741f14610511578063e63ab1e914610531578063e985e9c51461056557600080fd5b8063a22cb4651461047d578063b88d4fde1461049d578063c87b56dd146104bd57600080fd5b80636352211e146103de57806370a08231146103fe5780638456cb591461041e57806391d148541461043357806395d89b4114610453578063a217fddf1461046857600080fd5b80632a55205a1161013e5780633cf3e664116101185780633cf3e6641461037e5780633f4ba83a1461039157806342842e0e146103a65780635c975abb146103c657600080fd5b80632a55205a146102ff5780632f2ff15d1461033e57806336568abe1461035e57600080fd5b806301ffc9a7146101f057806306fdde0314610225578063081812fc14610247578063095ea7b31461027f57806323b872dd146102a1578063248a9ca3146102c157600080fd5b366101eb576008546040516307cddbc560e21b81523060048201526001600160a01b0390911690631f376f149034906024016000604051808303818588803b1580156101d057600080fd5b505af11580156101e4573d6000803e3d6000fd5b5050505050005b600080fd5b3480156101fc57600080fd5b5061021061020b366004612471565b6105ae565b60405190151581526020015b60405180910390f35b34801561023157600080fd5b5061023a6105d9565b60405161021c91906125e9565b34801561025357600080fd5b50610267610262366004612437565b61066b565b6040516001600160a01b03909116815260200161021c565b34801561028b57600080fd5b5061029f61029a366004612363565b610705565b005b3480156102ad57600080fd5b5061029f6102bc36600461221d565b61081b565b3480156102cd57600080fd5b506102f16102dc366004612437565b60009081526007602052604090206001015490565b60405190815260200161021c565b34801561030b57600080fd5b5061031f61031a3660046124a9565b61084c565b604080516001600160a01b03909316835260208301919091520161021c565b34801561034a57600080fd5b5061029f61035936600461244f565b610874565b34801561036a57600080fd5b5061029f61037936600461244f565b61089a565b61029f61038c36600461238c565b610918565b34801561039d57600080fd5b5061029f610a24565b3480156103b257600080fd5b5061029f6103c136600461221d565b610aa4565b3480156103d257600080fd5b5060065460ff16610210565b3480156103ea57600080fd5b506102676103f9366004612437565b610abf565b34801561040a57600080fd5b506102f16104193660046121da565b610b36565b34801561042a57600080fd5b5061029f610bbd565b34801561043f57600080fd5b5061021061044e36600461244f565b610c3b565b34801561045f57600080fd5b5061023a610c66565b34801561047457600080fd5b506102f1600081565b34801561048957600080fd5b5061029f61049836600461232d565b610c75565b3480156104a957600080fd5b5061029f6104b8366004612258565b610c80565b3480156104c957600080fd5b5061023a6104d8366004612437565b610cb8565b3480156104e957600080fd5b506102f17f9f2df0fed2c77648de5860a4cc508cd0818c85b8b8a1ab4ceeef8d981c8956a681565b34801561051d57600080fd5b5061029f61052c36600461244f565b610da0565b34801561053d57600080fd5b506102f17f65d7a28e3265b37a6474929f336521b332c1681b933f6cb9f3376673440d862a81565b34801561057157600080fd5b506102106105803660046121f4565b6001600160a01b03918216600090815260056020908152604080832093909416825291909152205460ff1690565b60006001600160e01b03198216630f3cf99960e21b14806105d357506105d382610fc4565b92915050565b6060600080546105e890612744565b80601f016020809104026020016040519081016040528092919081815260200182805461061490612744565b80156106615780601f1061063657610100808354040283529160200191610661565b820191906000526020600020905b81548152906001019060200180831161064457829003601f168201915b5050505050905090565b6000818152600260205260408120546001600160a01b03166106e95760405162461bcd60e51b815260206004820152602c60248201527f4552433732313a20617070726f76656420717565727920666f72206e6f6e657860448201526b34b9ba32b73a103a37b5b2b760a11b60648201526084015b60405180910390fd5b506000908152600460205260409020546001600160a01b031690565b600061071082610abf565b9050806001600160a01b0316836001600160a01b0316141561077e5760405162461bcd60e51b815260206004820152602160248201527f4552433732313a20617070726f76616c20746f2063757272656e74206f776e656044820152603960f91b60648201526084016106e0565b336001600160a01b038216148061079a575061079a8133610580565b61080c5760405162461bcd60e51b815260206004820152603860248201527f4552433732313a20617070726f76652063616c6c6572206973206e6f74206f7760448201527f6e6572206e6f7220617070726f76656420666f7220616c6c000000000000000060648201526084016106e0565b6108168383610fe9565b505050565b6108253382611057565b6108415760405162461bcd60e51b81526004016106e09061264e565b61081683838361114e565b600954309060009060649061086190856126cb565b61086b91906126b7565b90509250929050565b60008281526007602052604090206001015461089081336112f9565b610816838361135d565b6001600160a01b038116331461090a5760405162461bcd60e51b815260206004820152602f60248201527f416363657373436f6e74726f6c3a2063616e206f6e6c792072656e6f756e636560448201526e103937b632b9903337b91039b2b63360891b60648201526084016106e0565b61091482826113e3565b5050565b6008546001600160a01b0316336001600160a01b031614806109405750610940600033610c3b565b6109845760405162461bcd60e51b81526020600482015260156024820152742926ac1d1034b73b30b634b2103932b232b2b6b2b960591b60448201526064016106e0565b6109ce61099286868661144a565b83838080601f0160208091040260200160405190810160405280939291908181526020018383808284376000920191909152506114b592505050565b610a135760405162461bcd60e51b8152602060048201526016602482015275524d583a20496e76616c6964207369676e617475726560501b60448201526064016106e0565b610a1d85856114e5565b5050505050565b610a4e7f65d7a28e3265b37a6474929f336521b332c1681b933f6cb9f3376673440d862a33610c3b565b610a9a5760405162461bcd60e51b815260206004820152601b60248201527f524d583a20616464726573732063616e6e6f7420756e7061757365000000000060448201526064016106e0565b610aa26114ff565b565b61081683838360405180602001604052806000815250610c80565b6000818152600260205260408120546001600160a01b0316806105d35760405162461bcd60e51b815260206004820152602960248201527f4552433732313a206f776e657220717565727920666f72206e6f6e657869737460448201526832b73a103a37b5b2b760b91b60648201526084016106e0565b60006001600160a01b038216610ba15760405162461bcd60e51b815260206004820152602a60248201527f4552433732313a2062616c616e636520717565727920666f7220746865207a65604482015269726f206164647265737360b01b60648201526084016106e0565b506001600160a01b031660009081526003602052604090205490565b610be77f65d7a28e3265b37a6474929f336521b332c1681b933f6cb9f3376673440d862a33610c3b565b610c335760405162461bcd60e51b815260206004820152601960248201527f524d583a20616464726573732063616e6e6f742070617573650000000000000060448201526064016106e0565b610aa2611592565b60009182526007602090815260408084206001600160a01b0393909316845291905290205460ff1690565b6060600180546105e890612744565b61091433838361160d565b610c8a3383611057565b610ca65760405162461bcd60e51b81526004016106e09061264e565b610cb2848484846116dc565b50505050565b6000818152600260205260409020546060906001600160a01b0316610d375760405162461bcd60e51b815260206004820152602f60248201527f4552433732314d657461646174613a2055524920717565727920666f72206e6f60448201526e3732bc34b9ba32b73a103a37b5b2b760891b60648201526084016106e0565b6000610d4e60408051602081019091526000815290565b90506000815111610d6e5760405180602001604052806000815250610d99565b80610d788461170f565b604051602001610d89929190612512565b6040516020818303038152906040525b9392505050565b600082815260076020526040902060010154610dbc81336112f9565b61081683836113e3565b6000610dd183611829565b8015610d995750610d99838361185c565b60606000610df18360026126cb565b610dfc90600261269f565b67ffffffffffffffff811115610e2257634e487b7160e01b600052604160045260246000fd5b6040519080825280601f01601f191660200182016040528015610e4c576020820181803683370190505b509050600360fc1b81600081518110610e7557634e487b7160e01b600052603260045260246000fd5b60200101906001600160f81b031916908160001a905350600f60fb1b81600181518110610eb257634e487b7160e01b600052603260045260246000fd5b60200101906001600160f81b031916908160001a9053506000610ed68460026126cb565b610ee190600161269f565b90505b6001811115610f75576f181899199a1a9b1b9c1cb0b131b232b360811b85600f1660108110610f2357634e487b7160e01b600052603260045260246000fd5b1a60f81b828281518110610f4757634e487b7160e01b600052603260045260246000fd5b60200101906001600160f81b031916908160001a90535060049490941c93610f6e8161272d565b9050610ee4565b508315610d995760405162461bcd60e51b815260206004820181905260248201527f537472696e67733a20686578206c656e67746820696e73756666696369656e7460448201526064016106e0565b60006001600160e01b03198216637965db0b60e01b14806105d357506105d382611945565b600081815260046020526040902080546001600160a01b0319166001600160a01b038416908117909155819061101e82610abf565b6001600160a01b03167f8c5be1e5ebec7d5bd14f71427d1e84f3dd0314c0f7b2291e5b200ac8c7c3b92560405160405180910390a45050565b6000818152600260205260408120546001600160a01b03166110d05760405162461bcd60e51b815260206004820152602c60248201527f4552433732313a206f70657261746f7220717565727920666f72206e6f6e657860448201526b34b9ba32b73a103a37b5b2b760a11b60648201526084016106e0565b60006110db83610abf565b9050806001600160a01b0316846001600160a01b031614806111165750836001600160a01b031661110b8461066b565b6001600160a01b0316145b8061114657506001600160a01b0380821660009081526005602090815260408083209388168352929052205460ff165b949350505050565b826001600160a01b031661116182610abf565b6001600160a01b0316146111c95760405162461bcd60e51b815260206004820152602960248201527f4552433732313a207472616e73666572206f6620746f6b656e2074686174206960448201526839903737ba1037bbb760b91b60648201526084016106e0565b6001600160a01b03821661122b5760405162461bcd60e51b8152602060048201526024808201527f4552433732313a207472616e7366657220746f20746865207a65726f206164646044820152637265737360e01b60648201526084016106e0565b611236838383611995565b611241600082610fe9565b6001600160a01b038316600090815260036020526040812080546001929061126a9084906126ea565b90915550506001600160a01b038216600090815260036020526040812080546001929061129890849061269f565b909155505060008181526002602052604080822080546001600160a01b0319166001600160a01b0386811691821790925591518493918716917fddf252ad1be2c89b69c2b068fc378daa952ba7f163c4a11628f55a4df523b3ef91a4505050565b6113038282610c3b565b6109145761131b816001600160a01b03166014610de2565b611326836020610de2565b604051602001611337929190612541565b60408051601f198184030181529082905262461bcd60e51b82526106e0916004016125e9565b6113678282610c3b565b6109145760008281526007602090815260408083206001600160a01b03851684529091529020805460ff1916600117905561139f3390565b6001600160a01b0316816001600160a01b0316837f2f8788117e7eff1d82e926ec794901d17c78024a50270940304540a733656f0d60405160405180910390a45050565b6113ed8282610c3b565b156109145760008281526007602090815260408083206001600160a01b0385168085529252808320805460ff1916905551339285917ff6391f5c32d9c69d2a47ea670b442974b53935d1edc7fd64eb21e047a839171b9190a45050565b604080517f0996349eede68e0490dd3819b826f95aa5b85b91643deb6e88ece318b6abcd2c60208201529081018390526001600160a01b0384166060820152608081018290526000906111469060a001604051602081830303815290604052805190602001206119a0565b6000610d997f9f2df0fed2c77648de5860a4cc508cd0818c85b8b8a1ab4ceeef8d981c8956a661044e85856119ee565b610914828260405180602001604052806000815250611a12565b60065460ff166115485760405162461bcd60e51b815260206004820152601460248201527314185d5cd8589b194e881b9bdd081c185d5cd95960621b60448201526064016106e0565b6006805460ff191690557f5db9ee0a495bf2e6ff9c91a7834c1ba4fdd244a5e8aa4e537bd38aeae4b073aa335b6040516001600160a01b03909116815260200160405180910390a1565b60065460ff16156115d85760405162461bcd60e51b815260206004820152601060248201526f14185d5cd8589b194e881c185d5cd95960821b60448201526064016106e0565b6006805460ff191660011790557f62e78cea01bee320cd4e420270b5ea74000d11b0c9f74754ebdbfc544b05a2586115753390565b816001600160a01b0316836001600160a01b0316141561166f5760405162461bcd60e51b815260206004820152601960248201527f4552433732313a20617070726f766520746f2063616c6c65720000000000000060448201526064016106e0565b6001600160a01b03838116600081815260056020908152604080832094871680845294825291829020805460ff191686151590811790915591519182527f17307eab39ab6107e8899845ad3d59bd9653f200f220920489ca2b5937696c31910160405180910390a3505050565b6116e784848461114e565b6116f384848484611a45565b610cb25760405162461bcd60e51b81526004016106e0906125fc565b6060816117335750506040805180820190915260018152600360fc1b602082015290565b8160005b811561175d57806117478161277f565b91506117569050600a836126b7565b9150611737565b60008167ffffffffffffffff81111561178657634e487b7160e01b600052604160045260246000fd5b6040519080825280601f01601f1916602001820160405280156117b0576020820181803683370190505b5090505b8415611146576117c56001836126ea565b91506117d2600a8661279a565b6117dd90603061269f565b60f81b81838151811061180057634e487b7160e01b600052603260045260246000fd5b60200101906001600160f81b031916908160001a905350611822600a866126b7565b94506117b4565b600061183c826301ffc9a760e01b61185c565b80156105d35750611855826001600160e01b031961185c565b1592915050565b604080516001600160e01b0319831660248083019190915282518083039091018152604490910182526020810180516001600160e01b03166301ffc9a760e01b179052905160009190829081906001600160a01b03871690617530906118c39086906124f6565b6000604051808303818686fa925050503d80600081146118ff576040519150601f19603f3d011682016040523d82523d6000602084013e611904565b606091505b509150915060208151101561191f57600093505050506105d3565b81801561193b57508080602001905181019061193b919061241b565b9695505050505050565b60006001600160e01b031982166380ac58cd60e01b148061197657506001600160e01b03198216635b5e139f60e01b145b806105d357506301ffc9a760e01b6001600160e01b03198316146105d3565b610816838383611b52565b60006105d36119ad611bb9565b8360405161190160f01b6020820152602281018390526042810182905260009060620160405160208183030381529060405280519060200120905092915050565b60008060006119fd8585611ce0565b91509150611a0a81611d50565b509392505050565b611a1c8383611f54565b611a296000848484611a45565b6108165760405162461bcd60e51b81526004016106e0906125fc565b60006001600160a01b0384163b15611b4757604051630a85bd0160e11b81526001600160a01b0385169063150b7a0290611a899033908990889088906004016125b6565b602060405180830381600087803b158015611aa357600080fd5b505af1925050508015611ad3575060408051601f3d908101601f19168201909252611ad09181019061248d565b60015b611b2d573d808015611b01576040519150601f19603f3d011682016040523d82523d6000602084013e611b06565b606091505b508051611b255760405162461bcd60e51b81526004016106e0906125fc565b805181602001fd5b6001600160e01b031916630a85bd0160e11b149050611146565b506001949350505050565b60065460ff16156108165760405162461bcd60e51b815260206004820152602b60248201527f4552433732315061757361626c653a20746f6b656e207472616e73666572207760448201526a1a1a5b19481c185d5cd95960aa1b60648201526084016106e0565b6000306001600160a01b037f000000000000000000000000000000000000000000000000000000000000000016148015611c1257507f000000000000000000000000000000000000000000000000000000000000000046145b15611c3c57507f000000000000000000000000000000000000000000000000000000000000000090565b50604080517f00000000000000000000000000000000000000000000000000000000000000006020808301919091527f0000000000000000000000000000000000000000000000000000000000000000828401527f000000000000000000000000000000000000000000000000000000000000000060608301524660808301523060a0808401919091528351808403909101815260c0909201909252805191012090565b600080825160411415611d175760208301516040840151606085015160001a611d0b878285856120a2565b94509450505050611d49565b825160401415611d415760208301516040840151611d3686838361218f565b935093505050611d49565b506000905060025b9250929050565b6000816004811115611d7257634e487b7160e01b600052602160045260246000fd5b1415611d7b5750565b6001816004811115611d9d57634e487b7160e01b600052602160045260246000fd5b1415611deb5760405162461bcd60e51b815260206004820152601860248201527f45434453413a20696e76616c6964207369676e6174757265000000000000000060448201526064016106e0565b6002816004811115611e0d57634e487b7160e01b600052602160045260246000fd5b1415611e5b5760405162461bcd60e51b815260206004820152601f60248201527f45434453413a20696e76616c6964207369676e6174757265206c656e6774680060448201526064016106e0565b6003816004811115611e7d57634e487b7160e01b600052602160045260246000fd5b1415611ed65760405162461bcd60e51b815260206004820152602260248201527f45434453413a20696e76616c6964207369676e6174757265202773272076616c604482015261756560f01b60648201526084016106e0565b6004816004811115611ef857634e487b7160e01b600052602160045260246000fd5b1415611f515760405162461bcd60e51b815260206004820152602260248201527f45434453413a20696e76616c6964207369676e6174757265202776272076616c604482015261756560f01b60648201526084016106e0565b50565b6001600160a01b038216611faa5760405162461bcd60e51b815260206004820181905260248201527f4552433732313a206d696e7420746f20746865207a65726f206164647265737360448201526064016106e0565b6000818152600260205260409020546001600160a01b03161561200f5760405162461bcd60e51b815260206004820152601c60248201527f4552433732313a20746f6b656e20616c7265616479206d696e7465640000000060448201526064016106e0565b61201b60008383611995565b6001600160a01b038216600090815260036020526040812080546001929061204490849061269f565b909155505060008181526002602052604080822080546001600160a01b0319166001600160a01b03861690811790915590518392907fddf252ad1be2c89b69c2b068fc378daa952ba7f163c4a11628f55a4df523b3ef908290a45050565b6000807f7fffffffffffffffffffffffffffffff5d576e7357a4501ddfe92f46681b20a08311156120d95750600090506003612186565b8460ff16601b141580156120f157508460ff16601c14155b156121025750600090506004612186565b6040805160008082526020820180845289905260ff881692820192909252606081018690526080810185905260019060a0016020604051602081039080840390855afa158015612156573d6000803e3d6000fd5b5050604051601f1901519150506001600160a01b03811661217f57600060019250925050612186565b9150600090505b94509492505050565b6000806001600160ff1b03831660ff84901c601b016121b0878288856120a2565b935093505050935093915050565b80356001600160a01b03811681146121d557600080fd5b919050565b6000602082840312156121eb578081fd5b610d99826121be565b60008060408385031215612206578081fd5b61220f836121be565b915061086b602084016121be565b600080600060608486031215612231578081fd5b61223a846121be565b9250612248602085016121be565b9150604084013590509250925092565b6000806000806080858703121561226d578081fd5b612276856121be565b9350612284602086016121be565b925060408501359150606085013567ffffffffffffffff808211156122a7578283fd5b818701915087601f8301126122ba578283fd5b8135818111156122cc576122cc6127da565b604051601f8201601f19908116603f011681019083821181831017156122f4576122f46127da565b816040528281528a602084870101111561230c578586fd5b82602086016020830137918201602001949094529598949750929550505050565b6000806040838503121561233f578182fd5b612348836121be565b91506020830135612358816127f0565b809150509250929050565b60008060408385031215612375578182fd5b61237e836121be565b946020939093013593505050565b6000806000806000608086880312156123a3578081fd5b6123ac866121be565b94506020860135935060408601359250606086013567ffffffffffffffff808211156123d6578283fd5b818801915088601f8301126123e9578283fd5b8135818111156123f7578384fd5b896020828501011115612408578384fd5b9699959850939650602001949392505050565b60006020828403121561242c578081fd5b8151610d99816127f0565b600060208284031215612448578081fd5b5035919050565b60008060408385031215612461578182fd5b8235915061086b602084016121be565b600060208284031215612482578081fd5b8135610d99816127fe565b60006020828403121561249e578081fd5b8151610d99816127fe565b600080604083850312156124bb578081fd5b50508035926020909101359150565b600081518084526124e2816020860160208601612701565b601f01601f19169290920160200192915050565b60008251612508818460208701612701565b9190910192915050565b60008351612524818460208801612701565b835190830190612538818360208801612701565b01949350505050565b7f416363657373436f6e74726f6c3a206163636f756e7420000000000000000000815260008351612579816017850160208801612701565b7001034b99036b4b9b9b4b733903937b6329607d1b60179184019182015283516125aa816028840160208801612701565b01602801949350505050565b6001600160a01b038581168252841660208201526040810183905260806060820181905260009061193b908301846124ca565b602081526000610d9960208301846124ca565b60208082526032908201527f4552433732313a207472616e7366657220746f206e6f6e20455243373231526560408201527131b2b4bb32b91034b6b83632b6b2b73a32b960711b606082015260800190565b60208082526031908201527f4552433732313a207472616e736665722063616c6c6572206973206e6f74206f6040820152701ddb995c881b9bdc88185c1c1c9bdd9959607a1b606082015260800190565b600082198211156126b2576126b26127ae565b500190565b6000826126c6576126c66127c4565b500490565b60008160001904831182151516156126e5576126e56127ae565b500290565b6000828210156126fc576126fc6127ae565b500390565b60005b8381101561271c578181015183820152602001612704565b83811115610cb25750506000910152565b60008161273c5761273c6127ae565b506000190190565b600181811c9082168061275857607f821691505b6020821081141561277957634e487b7160e01b600052602260045260246000fd5b50919050565b6000600019821415612793576127936127ae565b5060010190565b6000826127a9576127a96127c4565b500690565b634e487b7160e01b600052601160045260246000fd5b634e487b7160e01b600052601260045260246000fd5b634e487b7160e01b600052604160045260246000fd5b8015158114611f5157600080fd5b6001600160e01b031981168114611f5157600080fdfea2646970667358221220d40ab2c7e9a91ccfeff09543e056cc9ca79064f274dc7d9f4870d9766d8c90c464736f6c63430008040033a26469706673582212201073572066160dea579f57686aa3a831f3c23a5e8c38e054348383b98fd482b364736f6c63430008040033",
  "linkReferences": {},
  "deployedLinkReferences": {}
}